8=FIXT.1.1|9=80|35=A|34=1|49=CLIENT|52=20230505-06:27:45.853|56=SERVER|98=0|108=30|141=Y|1137=8|10=090|
8=FIXT.1.1|9=80|35=A|34=1|49=SERVER|52=20230505-06:27:46.010|56=CLIENT|98=0|108=30|141=Y|1137=9|10=077|
