8=FIXT.1.1|9=80|35=A|34=1|49=SERVER|52=20230505-06:28:10.978|56=CLIENT|98=0|108=30|141=Y|1137=9|10=092|