05-05 10:48 - INFO  - c.e.f.FixAcceptorApplication - Starting FixAcceptorApplication using Java 17.0.7 with PID 20120 (D:\iwork\fix-acceptor\target\classes started by Shamsi in D:\iwork\fix-acceptor)
05-05 10:48 - INFO  - c.e.f.FixAcceptorApplication - No active profile set, falling back to 1 default profile: "default"
05-05 10:48 - INFO  - c.e.f.FixAcceptorApplication - Started FixAcceptorApplication in 3.161 seconds (process running for 3.536)
05-05 10:48 - INFO  - c.e.f.FixAcceptorApplication - Starting FixAcceptorApplication using Java 17.0.7 with PID 6652 (D:\iwork\fix-acceptor\target\classes started by Shamsi in D:\iwork\fix-acceptor)
05-05 10:48 - INFO  - c.e.f.FixAcceptorApplication - No active profile set, falling back to 1 default profile: "default"
05-05 10:48 - INFO  - c.e.f.FixAcceptorApplication - Started FixAcceptorApplication in 2.545 seconds (process running for 3.104)
05-05 11:14 - INFO  - c.e.f.FixAcceptorApplication - Starting FixAcceptorApplication using Java 17.0.7 with PID 1892 (D:\iwork\fix-acceptor\target\classes started by Shamsi in D:\iwork\fix-acceptor)
05-05 11:14 - INFO  - c.e.f.FixAcceptorApplication - No active profile set, falling back to 1 default profile: "default"
05-05 11:14 - INFO  - c.e.f.FixAcceptorApplication - Started FixAcceptorApplication in 3.047 seconds (process running for 3.56)
05-05 11:14 - ERROR - q.m.a.AcceptorIoHandler - Disconnecting; received message for unknown session: 8=FIXT.1.1|9=80|35=A|34=1|49=CLEINT|52=20230505-06:14:51.503|56=SERVER|98=0|108=30|141=Y|1137=8|10=075|
05-05 11:14 - ERROR - q.m.a.AcceptorIoHandler - Disconnecting; received message for unknown session: 8=FIXT.1.1|9=80|35=A|34=1|49=CLEINT|52=20230505-06:14:56.479|56=SERVER|98=0|108=30|141=Y|1137=8|10=092|
05-05 11:15 - ERROR - q.m.a.AcceptorIoHandler - Disconnecting; received message for unknown session: 8=FIXT.1.1|9=80|35=A|34=1|49=CLEINT|52=20230505-06:15:01.481|56=SERVER|98=0|108=30|141=Y|1137=8|10=076|
05-05 11:15 - ERROR - q.m.a.AcceptorIoHandler - Disconnecting; received message for unknown session: 8=FIXT.1.1|9=80|35=A|34=1|49=CLEINT|52=20230505-06:15:06.479|56=SERVER|98=0|108=30|141=Y|1137=8|10=088|
05-05 11:15 - ERROR - q.m.a.AcceptorIoHandler - Socket (/127.0.0.1:58024): java.net.SocketException: Connection reset
java.net.SocketException: Connection reset
	at java.base/sun.nio.ch.SocketChannelImpl.throwConnectionReset(SocketChannelImpl.java:394)
	at java.base/sun.nio.ch.SocketChannelImpl.read(SocketChannelImpl.java:426)
	at org.apache.mina.transport.socket.nio.NioProcessor.read(NioProcessor.java:378)
	at org.apache.mina.transport.socket.nio.NioProcessor.read(NioProcessor.java:47)
	at org.apache.mina.core.polling.AbstractPollingIoProcessor.read(AbstractPollingIoProcessor.java:519)
	at org.apache.mina.core.polling.AbstractPollingIoProcessor.access$1200(AbstractPollingIoProcessor.java:68)
	at org.apache.mina.core.polling.AbstractPollingIoProcessor$Processor.process(AbstractPollingIoProcessor.java:1224)
	at org.apache.mina.core.polling.AbstractPollingIoProcessor$Processor.process(AbstractPollingIoProcessor.java:1213)
	at org.apache.mina.core.polling.AbstractPollingIoProcessor$Processor.run(AbstractPollingIoProcessor.java:683)
	at org.apache.mina.util.NamePreservingRunnable.run(NamePreservingRunnable.java:64)
	at java.base/java.util.concurrent.ThreadPoolExecutor.runWorker(ThreadPoolExecutor.java:1136)
	at java.base/java.util.concurrent.ThreadPoolExecutor$Worker.run(ThreadPoolExecutor.java:635)
	at java.base/java.lang.Thread.run(Thread.java:833)
05-05 11:22 - INFO  - c.e.f.FixAcceptorApplication - Starting FixAcceptorApplication using Java 17.0.7 with PID 9848 (D:\iwork\fix-acceptor\target\classes started by Shamsi in D:\iwork\fix-acceptor)
05-05 11:22 - INFO  - c.e.f.FixAcceptorApplication - No active profile set, falling back to 1 default profile: "default"
05-05 11:22 - INFO  - c.e.f.FixAcceptorApplication - Started FixAcceptorApplication in 3.139 seconds (process running for 3.494)
05-05 11:23 - ERROR - q.m.a.AcceptorIoHandler - Disconnecting; received message for unknown session: 8=FIXT.1.1|9=80|35=A|34=1|49=CLEINT|52=20230505-06:23:29.142|56=SERVER|98=0|108=30|141=Y|1137=8|10=079|
05-05 11:23 - ERROR - q.m.a.AcceptorIoHandler - Disconnecting; received message for unknown session: 8=FIXT.1.1|9=80|35=A|34=1|49=CLEINT|52=20230505-06:23:34.147|56=SERVER|98=0|108=30|141=Y|1137=8|10=080|
05-05 11:23 - ERROR - q.m.a.AcceptorIoHandler - Disconnecting; received message for unknown session: 8=FIXT.1.1|9=80|35=A|34=1|49=CLEINT|52=20230505-06:23:39.140|56=SERVER|98=0|108=30|141=Y|1137=8|10=078|
05-05 11:23 - ERROR - q.m.a.AcceptorIoHandler - Disconnecting; received message for unknown session: 8=FIXT.1.1|9=80|35=A|34=1|49=CLEINT|52=20230505-06:23:44.146|56=SERVER|98=0|108=30|141=Y|1137=8|10=080|
05-05 11:23 - ERROR - q.m.a.AcceptorIoHandler - Disconnecting; received message for unknown session: 8=FIXT.1.1|9=80|35=A|34=1|49=CLEINT|52=20230505-06:23:49.137|56=SERVER|98=0|108=30|141=Y|1137=8|10=085|
05-05 11:23 - ERROR - q.m.a.AcceptorIoHandler - Disconnecting; received message for unknown session: 8=FIXT.1.1|9=80|35=A|34=1|49=CLEINT|52=20230505-06:23:54.159|56=SERVER|98=0|108=30|141=Y|1137=8|10=085|
05-05 11:23 - ERROR - q.m.a.AcceptorIoHandler - Disconnecting; received message for unknown session: 8=FIXT.1.1|9=80|35=A|34=1|49=CLEINT|52=20230505-06:23:59.145|56=SERVER|98=0|108=30|141=Y|1137=8|10=085|
05-05 11:24 - ERROR - q.m.a.AcceptorIoHandler - Disconnecting; received message for unknown session: 8=FIXT.1.1|9=80|35=A|34=1|49=CLEINT|52=20230505-06:24:04.145|56=SERVER|98=0|108=30|141=Y|1137=8|10=076|
05-05 11:24 - ERROR - q.m.a.AcceptorIoHandler - Disconnecting; received message for unknown session: 8=FIXT.1.1|9=80|35=A|34=1|49=CLEINT|52=20230505-06:24:09.142|56=SERVER|98=0|108=30|141=Y|1137=8|10=078|
05-05 11:24 - ERROR - q.m.a.AcceptorIoHandler - Disconnecting; received message for unknown session: 8=FIXT.1.1|9=80|35=A|34=1|49=CLEINT|52=20230505-06:24:14.141|56=SERVER|98=0|108=30|141=Y|1137=8|10=073|
05-05 11:24 - ERROR - q.m.a.AcceptorIoHandler - Disconnecting; received message for unknown session: 8=FIXT.1.1|9=80|35=A|34=1|49=CLEINT|52=20230505-06:24:19.135|56=SERVER|98=0|108=30|141=Y|1137=8|10=081|
05-05 11:24 - ERROR - q.m.a.AcceptorIoHandler - Disconnecting; received message for unknown session: 8=FIXT.1.1|9=80|35=A|34=1|49=CLEINT|52=20230505-06:24:24.139|56=SERVER|98=0|108=30|141=Y|1137=8|10=081|
05-05 11:24 - ERROR - q.m.a.AcceptorIoHandler - Disconnecting; received message for unknown session: 8=FIXT.1.1|9=80|35=A|34=1|49=CLEINT|52=20230505-06:24:29.142|56=SERVER|98=0|108=30|141=Y|1137=8|10=080|
05-05 11:24 - ERROR - q.m.a.AcceptorIoHandler - Disconnecting; received message for unknown session: 8=FIXT.1.1|9=80|35=A|34=1|49=CLEINT|52=20230505-06:24:35.145|56=SERVER|98=0|108=30|141=Y|1137=8|10=080|
05-05 11:24 - ERROR - q.m.a.AcceptorIoHandler - Disconnecting; received message for unknown session: 8=FIXT.1.1|9=80|35=A|34=1|49=CLEINT|52=20230505-06:24:40.134|56=SERVER|98=0|108=30|141=Y|1137=8|10=074|
05-05 11:24 - ERROR - q.m.a.AcceptorIoHandler - Disconnecting; received message for unknown session: 8=FIXT.1.1|9=80|35=A|34=1|49=CLEINT|52=20230505-06:24:45.145|56=SERVER|98=0|108=30|141=Y|1137=8|10=081|
05-05 11:24 - ERROR - q.m.a.AcceptorIoHandler - Disconnecting; received message for unknown session: 8=FIXT.1.1|9=80|35=A|34=1|49=CLEINT|52=20230505-06:24:50.138|56=SERVER|98=0|108=30|141=Y|1137=8|10=079|
05-05 11:24 - ERROR - q.m.a.AcceptorIoHandler - Disconnecting; received message for unknown session: 8=FIXT.1.1|9=80|35=A|34=1|49=CLEINT|52=20230505-06:24:55.142|56=SERVER|98=0|108=30|141=Y|1137=8|10=079|
05-05 11:25 - ERROR - q.m.a.AcceptorIoHandler - Disconnecting; received message for unknown session: 8=FIXT.1.1|9=80|35=A|34=1|49=CLEINT|52=20230505-06:25:00.133|56=SERVER|98=0|108=30|141=Y|1137=8|10=070|
05-05 11:25 - ERROR - q.m.a.AcceptorIoHandler - Disconnecting; received message for unknown session: 8=FIXT.1.1|9=80|35=A|34=1|49=CLEINT|52=20230505-06:25:05.147|56=SERVER|98=0|108=30|141=Y|1137=8|10=080|
05-05 11:25 - ERROR - q.m.a.AcceptorIoHandler - Disconnecting; received message for unknown session: 8=FIXT.1.1|9=80|35=A|34=1|49=CLEINT|52=20230505-06:25:10.143|56=SERVER|98=0|108=30|141=Y|1137=8|10=072|
05-05 11:25 - ERROR - q.m.a.AcceptorIoHandler - Disconnecting; received message for unknown session: 8=FIXT.1.1|9=80|35=A|34=1|49=CLEINT|52=20230505-06:25:15.148|56=SERVER|98=0|108=30|141=Y|1137=8|10=082|
05-05 11:25 - ERROR - q.m.a.AcceptorIoHandler - Disconnecting; received message for unknown session: 8=FIXT.1.1|9=80|35=A|34=1|49=CLEINT|52=20230505-06:25:20.147|56=SERVER|98=0|108=30|141=Y|1137=8|10=077|
05-05 11:25 - ERROR - q.m.a.AcceptorIoHandler - Disconnecting; received message for unknown session: 8=FIXT.1.1|9=80|35=A|34=1|49=CLEINT|52=20230505-06:25:25.148|56=SERVER|98=0|108=30|141=Y|1137=8|10=083|
05-05 11:25 - ERROR - q.m.a.AcceptorIoHandler - Disconnecting; received message for unknown session: 8=FIXT.1.1|9=80|35=A|34=1|49=CLEINT|52=20230505-06:25:30.143|56=SERVER|98=0|108=30|141=Y|1137=8|10=074|
05-05 11:25 - ERROR - q.m.a.AcceptorIoHandler - Disconnecting; received message for unknown session: 8=FIXT.1.1|9=80|35=A|34=1|49=CLEINT|52=20230505-06:25:36.152|56=SERVER|98=0|108=30|141=Y|1137=8|10=080|
05-05 11:25 - ERROR - q.m.a.AcceptorIoHandler - Disconnecting; received message for unknown session: 8=FIXT.1.1|9=80|35=A|34=1|49=CLEINT|52=20230505-06:25:41.150|56=SERVER|98=0|108=30|141=Y|1137=8|10=074|
05-05 11:25 - ERROR - q.m.a.AcceptorIoHandler - Disconnecting; received message for unknown session: 8=FIXT.1.1|9=80|35=A|34=1|49=CLEINT|52=20230505-06:25:46.149|56=SERVER|98=0|108=30|141=Y|1137=8|10=087|
05-05 11:25 - ERROR - q.m.a.AcceptorIoHandler - Disconnecting; received message for unknown session: 8=FIXT.1.1|9=80|35=A|34=1|49=CLEINT|52=20230505-06:25:51.151|56=SERVER|98=0|108=30|141=Y|1137=8|10=076|
05-05 11:25 - ERROR - q.m.a.AcceptorIoHandler - Disconnecting; received message for unknown session: 8=FIXT.1.1|9=80|35=A|34=1|49=CLEINT|52=20230505-06:25:56.151|56=SERVER|98=0|108=30|141=Y|1137=8|10=081|
05-05 11:26 - ERROR - q.m.a.AcceptorIoHandler - Disconnecting; received message for unknown session: 8=FIXT.1.1|9=80|35=A|34=1|49=CLEINT|52=20230505-06:26:01.148|56=SERVER|98=0|108=30|141=Y|1137=8|10=078|
05-05 11:26 - ERROR - q.m.a.AcceptorIoHandler - Disconnecting; received message for unknown session: 8=FIXT.1.1|9=80|35=A|34=1|49=CLEINT|52=20230505-06:26:06.147|56=SERVER|98=0|108=30|141=Y|1137=8|10=082|
05-05 11:26 - ERROR - q.m.a.AcceptorIoHandler - Disconnecting; received message for unknown session: 8=FIXT.1.1|9=80|35=A|34=1|49=CLEINT|52=20230505-06:26:11.151|56=SERVER|98=0|108=30|141=Y|1137=8|10=073|
05-05 11:26 - ERROR - q.m.a.AcceptorIoHandler - Disconnecting; received message for unknown session: 8=FIXT.1.1|9=80|35=A|34=1|49=CLEINT|52=20230505-06:26:16.143|56=SERVER|98=0|108=30|141=Y|1137=8|10=079|
05-05 11:26 - ERROR - q.m.a.AcceptorIoHandler - Disconnecting; received message for unknown session: 8=FIXT.1.1|9=80|35=A|34=1|49=CLEINT|52=20230505-06:26:21.150|56=SERVER|98=0|108=30|141=Y|1137=8|10=073|
05-05 11:26 - ERROR - q.m.a.AcceptorIoHandler - Disconnecting; received message for unknown session: 8=FIXT.1.1|9=80|35=A|34=1|49=CLEINT|52=20230505-06:26:26.135|56=SERVER|98=0|108=30|141=Y|1137=8|10=081|
05-05 11:26 - ERROR - q.m.a.AcceptorIoHandler - Disconnecting; received message for unknown session: 8=FIXT.1.1|9=80|35=A|34=1|49=CLEINT|52=20230505-06:26:31.132|56=SERVER|98=0|108=30|141=Y|1137=8|10=074|
05-05 11:26 - ERROR - q.m.a.AcceptorIoHandler - Disconnecting; received message for unknown session: 8=FIXT.1.1|9=80|35=A|34=1|49=CLEINT|52=20230505-06:26:36.134|56=SERVER|98=0|108=30|141=Y|1137=8|10=081|
05-05 11:26 - ERROR - q.m.a.AcceptorIoHandler - Disconnecting; received message for unknown session: 8=FIXT.1.1|9=80|35=A|34=1|49=CLEINT|52=20230505-06:26:41.135|56=SERVER|98=0|108=30|141=Y|1137=8|10=078|
05-05 11:26 - ERROR - q.m.a.AcceptorIoHandler - Disconnecting; received message for unknown session: 8=FIXT.1.1|9=80|35=A|34=1|49=CLEINT|52=20230505-06:26:47.143|56=SERVER|98=0|108=30|141=Y|1137=8|10=083|
05-05 11:26 - ERROR - q.m.a.AcceptorIoHandler - Disconnecting; received message for unknown session: 8=FIXT.1.1|9=80|35=A|34=1|49=CLEINT|52=20230505-06:26:52.132|56=SERVER|98=0|108=30|141=Y|1137=8|10=077|
05-05 11:26 - ERROR - q.m.a.AcceptorIoHandler - Disconnecting; received message for unknown session: 8=FIXT.1.1|9=80|35=A|34=1|49=CLEINT|52=20230505-06:26:57.139|56=SERVER|98=0|108=30|141=Y|1137=8|10=089|
05-05 11:27 - ERROR - q.m.a.AcceptorIoHandler - Disconnecting; received message for unknown session: 8=FIXT.1.1|9=80|35=A|34=1|49=CLEINT|52=20230505-06:27:02.134|56=SERVER|98=0|108=30|141=Y|1137=8|10=075|
05-05 11:27 - ERROR - q.m.a.AcceptorIoHandler - Disconnecting; received message for unknown session: 8=FIXT.1.1|9=80|35=A|34=1|49=CLEINT|52=20230505-06:27:07.154|56=SERVER|98=0|108=30|141=Y|1137=8|10=082|
05-05 11:27 - ERROR - q.m.a.AcceptorIoHandler - Disconnecting; received message for unknown session: 8=FIXT.1.1|9=80|35=A|34=1|49=CLEINT|52=20230505-06:27:12.140|56=SERVER|98=0|108=30|141=Y|1137=8|10=073|
05-05 11:27 - ERROR - q.m.a.AcceptorIoHandler - Disconnecting; received message for unknown session: 8=FIXT.1.1|9=80|35=A|34=1|49=CLEINT|52=20230505-06:27:17.137|56=SERVER|98=0|108=30|141=Y|1137=8|10=084|
05-05 11:27 - ERROR - q.m.a.AcceptorIoHandler - Disconnecting; received message for unknown session: 8=FIXT.1.1|9=80|35=A|34=1|49=CLEINT|52=20230505-06:27:22.141|56=SERVER|98=0|108=30|141=Y|1137=8|10=075|
05-05 11:27 - ERROR - q.m.a.AcceptorIoHandler - Disconnecting; received message for unknown session: 8=FIXT.1.1|9=80|35=A|34=1|49=CLEINT|52=20230505-06:27:27.145|56=SERVER|98=0|108=30|141=Y|1137=8|10=084|
05-05 11:27 - ERROR - q.m.a.AcceptorIoHandler - Disconnecting; received message for unknown session: 8=FIXT.1.1|9=80|35=A|34=1|49=CLEINT|52=20230505-06:27:32.142|56=SERVER|98=0|108=30|141=Y|1137=8|10=077|
05-05 11:27 - ERROR - q.m.a.AcceptorIoHandler - Disconnecting; received message for unknown session: 8=FIXT.1.1|9=80|35=A|34=1|49=CLEINT|52=20230505-06:27:37.143|56=SERVER|98=0|108=30|141=Y|1137=8|10=083|
